{
  "_format": "hh3-artifact-1",
  "contractName": "AssuraVerifier",
  "sourceName": "contracts/assura/AssuraVerifier.sol",
  "abi": [
    {
      "inputs": [
        {
          "internalType": "address",
          "name": "_owner",
          "type": "address"
        },
        {
          "internalType": "address",
          "name": "_ASSURA_TEE_ADDRESS",
          "type": "address"
        }
      ],
      "stateMutability": "nonpayable",
      "type": "constructor"
    },
    {
      "inputs": [],
      "name": "InvalidShortString",
      "type": "error"
    },
    {
      "inputs": [
        {
          "internalType": "address",
          "name": "owner",
          "type": "address"
        }
      ],
      "name": "OwnableInvalidOwner",
      "type": "error"
    },
    {
      "inputs": [
        {
          "internalType": "address",
          "name": "account",
          "type": "address"
        }
      ],
      "name": "OwnableUnauthorizedAccount",
      "type": "error"
    },
    {
      "inputs": [
        {
          "internalType": "string",
          "name": "str",
          "type": "string"
        }
      ],
      "name": "StringTooLong",
      "type": "error"
    },
    {
      "anonymous": false,
      "inputs": [
        {
          "indexed": false,
          "internalType": "address",
          "name": "oldAddress",
          "type": "address"
        },
        {
          "indexed": false,
          "internalType": "address",
          "name": "newAddress",
          "type": "address"
        }
      ],
      "name": "AssuraTeeAddressUpdated",
      "type": "event"
    },
    {
      "anonymous": false,
      "inputs": [
        {
          "indexed": true,
          "internalType": "address",
          "name": "userAddress",
          "type": "address"
        },
        {
          "indexed": true,
          "internalType": "address",
          "name": "appContractAddress",
          "type": "address"
        },
        {
          "indexed": true,
          "internalType": "bytes32",
          "name": "functionSelector",
          "type": "bytes32"
        },
        {
          "indexed": false,
          "internalType": "uint256",
          "name": "expiry",
          "type": "uint256"
        },
        {
          "indexed": false,
          "internalType": "uint256",
          "name": "nonce",
          "type": "uint256"
        }
      ],
      "name": "BypassEntryCreated",
      "type": "event"
    },
    {
      "anonymous": false,
      "inputs": [],
      "name": "EIP712DomainChanged",
      "type": "event"
    },
    {
      "anonymous": false,
      "inputs": [
        {
          "indexed": true,
          "internalType": "address",
          "name": "userAddress",
          "type": "address"
        },
        {
          "indexed": true,
          "internalType": "address",
          "name": "nexusAccount",
          "type": "address"
        },
        {
          "indexed": false,
          "internalType": "bytes32",
          "name": "salt",
          "type": "bytes32"
        },
        {
          "indexed": false,
          "internalType": "uint256",
          "name": "expiry",
          "type": "uint256"
        }
      ],
      "name": "NexusAccountDeployedOnBypass",
      "type": "event"
    },
    {
      "anonymous": false,
      "inputs": [
        {
          "indexed": false,
          "internalType": "address",
          "name": "oldAddress",
          "type": "address"
        },
        {
          "indexed": false,
          "internalType": "address",
          "name": "newAddress",
          "type": "address"
        }
      ],
      "name": "NexusAccountDeployerUpdated",
      "type": "event"
    },
    {
      "anonymous": false,
      "inputs": [
        {
          "indexed": true,
          "internalType": "address",
          "name": "previousOwner",
          "type": "address"
        },
        {
          "indexed": true,
          "internalType": "address",
          "name": "newOwner",
          "type": "address"
        }
      ],
      "name": "OwnershipTransferred",
      "type": "event"
    },
    {
      "anonymous": false,
      "inputs": [
        {
          "indexed": true,
          "internalType": "address",
          "name": "appContractAddress",
          "type": "address"
        },
        {
          "indexed": true,
          "internalType": "bytes32",
          "name": "key",
          "type": "bytes32"
        },
        {
          "components": [
            {
              "internalType": "uint256",
              "name": "score",
              "type": "uint256"
            },
            {
              "internalType": "uint256",
              "name": "expiry",
              "type": "uint256"
            },
            {
              "internalType": "uint256",
              "name": "chainId",
              "type": "uint256"
            }
          ],
          "indexed": false,
          "internalType": "struct AssuraTypes.VerifyingData",
          "name": "verifyingData",
          "type": "tuple"
        }
      ],
      "name": "VerifyingDataSet",
      "type": "event"
    },
    {
      "inputs": [],
      "name": "ASSURA_TEE_ADDRESS",
      "outputs": [
        {
          "internalType": "address",
          "name": "",
          "type": "address"
        }
      ],
      "stateMutability": "view",
      "type": "function"
    },
    {
      "inputs": [
        {
          "internalType": "address",
          "name": "userAddress",
          "type": "address"
        },
        {
          "internalType": "address",
          "name": "appContractAddress",
          "type": "address"
        },
        {
          "internalType": "bytes32",
          "name": "functionSelector",
          "type": "bytes32"
        }
      ],
      "name": "bypassEntries",
      "outputs": [
        {
          "internalType": "uint256",
          "name": "expiry",
          "type": "uint256"
        },
        {
          "internalType": "uint256",
          "name": "nonce",
          "type": "uint256"
        },
        {
          "internalType": "bool",
          "name": "allowed",
          "type": "bool"
        }
      ],
      "stateMutability": "view",
      "type": "function"
    },
    {
      "inputs": [],
      "name": "eip712Domain",
      "outputs": [
        {
          "internalType": "bytes1",
          "name": "fields",
          "type": "bytes1"
        },
        {
          "internalType": "string",
          "name": "name",
          "type": "string"
        },
        {
          "internalType": "string",
          "name": "version",
          "type": "string"
        },
        {
          "internalType": "uint256",
          "name": "chainId",
          "type": "uint256"
        },
        {
          "internalType": "address",
          "name": "verifyingContract",
          "type": "address"
        },
        {
          "internalType": "bytes32",
          "name": "salt",
          "type": "bytes32"
        },
        {
          "internalType": "uint256[]",
          "name": "extensions",
          "type": "uint256[]"
        }
      ],
      "stateMutability": "view",
      "type": "function"
    },
    {
      "inputs": [],
      "name": "getNexusAccountDeployer",
      "outputs": [
        {
          "internalType": "address",
          "name": "",
          "type": "address"
        }
      ],
      "stateMutability": "view",
      "type": "function"
    },
    {
      "inputs": [
        {
          "internalType": "address",
          "name": "appContractAddress",
          "type": "address"
        },
        {
          "internalType": "bytes32",
          "name": "key",
          "type": "bytes32"
        }
      ],
      "name": "getVerifyingData",
      "outputs": [
        {
          "components": [
            {
              "internalType": "uint256",
              "name": "score",
              "type": "uint256"
            },
            {
              "internalType": "uint256",
              "name": "expiry",
              "type": "uint256"
            },
            {
              "internalType": "uint256",
              "name": "chainId",
              "type": "uint256"
            }
          ],
          "internalType": "struct AssuraTypes.VerifyingData",
          "name": "",
          "type": "tuple"
        }
      ],
      "stateMutability": "view",
      "type": "function"
    },
    {
      "inputs": [],
      "name": "nexusAccountDeployer",
      "outputs": [
        {
          "internalType": "contract INexusAccountDeployer",
          "name": "",
          "type": "address"
        }
      ],
      "stateMutability": "view",
      "type": "function"
    },
    {
      "inputs": [],
      "name": "owner",
      "outputs": [
        {
          "internalType": "address",
          "name": "",
          "type": "address"
        }
      ],
      "stateMutability": "view",
      "type": "function"
    },
    {
      "inputs": [],
      "name": "renounceOwnership",
      "outputs": [],
      "stateMutability": "nonpayable",
      "type": "function"
    },
    {
      "inputs": [
        {
          "internalType": "address",
          "name": "appContractAddress",
          "type": "address"
        },
        {
          "internalType": "bytes32",
          "name": "key",
          "type": "bytes32"
        },
        {
          "components": [
            {
              "internalType": "uint256",
              "name": "score",
              "type": "uint256"
            },
            {
              "internalType": "uint256",
              "name": "expiry",
              "type": "uint256"
            },
            {
              "internalType": "uint256",
              "name": "chainId",
              "type": "uint256"
            }
          ],
          "internalType": "struct AssuraTypes.VerifyingData",
          "name": "data",
          "type": "tuple"
        }
      ],
      "name": "setVerifyingData",
      "outputs": [],
      "stateMutability": "nonpayable",
      "type": "function"
    },
    {
      "inputs": [
        {
          "internalType": "address",
          "name": "newOwner",
          "type": "address"
        }
      ],
      "name": "transferOwnership",
      "outputs": [],
      "stateMutability": "nonpayable",
      "type": "function"
    },
    {
      "inputs": [
        {
          "internalType": "address",
          "name": "_ASSURA_TEE_ADDRESS",
          "type": "address"
        }
      ],
      "name": "updateAssuraTeeAddress",
      "outputs": [],
      "stateMutability": "nonpayable",
      "type": "function"
    },
    {
      "inputs": [
        {
          "internalType": "address",
          "name": "_nexusAccountDeployer",
          "type": "address"
        }
      ],
      "name": "updateNexusAccountDeployer",
      "outputs": [],
      "stateMutability": "nonpayable",
      "type": "function"
    },
    {
      "inputs": [
        {
          "internalType": "address",
          "name": "app",
          "type": "address"
        },
        {
          "internalType": "bytes32",
          "name": "key",
          "type": "bytes32"
        },
        {
          "internalType": "bytes",
          "name": "attestedComplianceData",
          "type": "bytes"
        }
      ],
      "name": "verify",
      "outputs": [
        {
          "internalType": "bool",
          "name": "",
          "type": "bool"
        }
      ],
      "stateMutability": "view",
      "type": "function"
    },
    {
      "inputs": [
        {
          "internalType": "address",
          "name": "app",
          "type": "address"
        },
        {
          "internalType": "bytes32",
          "name": "key",
          "type": "bytes32"
        },
        {
          "internalType": "bytes",
          "name": "attestedComplianceData",
          "type": "bytes"
        }
      ],
      "name": "verifyWithBypass",
      "outputs": [
        {
          "internalType": "bool",
          "name": "",
          "type": "bool"
        }
      ],
      "stateMutability": "nonpayable",
      "type": "function"
    },
    {
      "inputs": [
        {
          "internalType": "address",
          "name": "appContractAddress",
          "type": "address"
        },
        {
          "internalType": "bytes32",
          "name": "key",
          "type": "bytes32"
        }
      ],
      "name": "verifyingData",
      "outputs": [
        {
          "internalType": "uint256",
          "name": "score",
          "type": "uint256"
        },
        {
          "internalType": "uint256",
          "name": "expiry",
          "type": "uint256"
        },
        {
          "internalType": "uint256",
          "name": "chainId",
          "type": "uint256"
        }
      ],
      "stateMutability": "view",
      "type": "function"
    }
  ],
  "bytecode": "0x61016080604052346102af576040816125f1803803809161002082856102b3565b8339810103126102af5761003f6020610038836102d6565b92016102d6565b9060405161004e6040826102b3565b600e815260208101906d20b9b9bab930ab32b934b334b2b960911b82526040519161007a6040846102b3565b600183526020830191603160f81b8352610093816102ea565b610120526100a084610480565b61014052519020918260e05251902080610100524660a0526040519060208201927f8b73c3c69bb8fe3d512ecc4cf759cc79239f7b179b0ffacaa9a75d522b39400f8452604083015260608201524660808201523060a082015260a0815261010960c0826102b3565b5190206080523060c0526001600160a01b031690811561029c57600280546001600160a01b03198116841790915560405192906001600160a01b03167f8be0079c531659141344cd1fd0a4f28419497f9722a3daafe3b4186f6b6457e05f80a36001600160a01b031690811561024a5750600580546001600160a01b031916919091179055604051610a3a8082016001600160401b03811183821017610236578291611bb7833903905ff0801561022b57600680546001600160a01b0319166001600160a01b03929092169190911790556040516115fe90816105b9823960805181610c25015260a05181610ce2015260c05181610bef015260e05181610c7401526101005181610c9a015261012051816104540152610140518161047d0152f35b6040513d5f823e3d90fd5b634e487b7160e01b5f52604160045260245ffd5b62461bcd60e51b815260206004820152602760248201527f41737375726156657269666965723a2054454520616464726573732063616e6e60448201526606f7420626520360cc1b6064820152608490fd5b631e4fbdf760e01b5f525f60045260245ffd5b5f80fd5b601f909101601f19168101906001600160401b0382119082101761023657604052565b51906001600160a01b03821682036102af57565b908151602081105f14610364575090601f815111610324576020815191015160208210610315571790565b5f198260200360031b1b161790565b604460209160405192839163305a27a960e01b83528160048401528051918291826024860152018484015e5f828201840152601f01601f19168101030190fd5b6001600160401b038111610236575f54600181811c91168015610476575b602082101461046257601f8111610430575b50602092601f82116001146103d157928192935f926103c6575b50508160011b915f199060031b1c1916175f5560ff90565b015190505f806103ae565b601f198216935f8052805f20915f5b8681106104185750836001959610610400575b505050811b015f5560ff90565b01515f1960f88460031b161c191690555f80806103f3565b919260206001819286850151815501940192016103e0565b5f8052601f60205f20910160051c810190601f830160051c015b8181106104575750610394565b5f815560010161044a565b634e487b7160e01b5f52602260045260245ffd5b90607f1690610382565b908151602081105f146104ab575090601f815111610324576020815191015160208210610315571790565b6001600160401b03811161023657600154600181811c911680156105ae575b602082101461046257601f811161057b575b50602092601f821160011461051a57928192935f9261050f575b50508160011b915f199060031b1c19161760015560ff90565b015190505f806104f6565b601f1982169360015f52805f20915f5b868110610563575083600195961061054b575b505050811b0160015560ff90565b01515f1960f88460031b161c191690555f808061053d565b9192602060018192868501518155019401920161052a565b60015f52601f60205f20910160051c810190601f830160051c015b8181106105a357506104dc565b5f8155600101610596565b90607f16906104ca56fe60806040526004361015610011575f80fd5b5f3560e01c80630fecae49146107225780631a86b550146107065780631ec12ea0146106245780632d9f46a0146103ec5780633aae55e3146105fc57806359bde7711461058f578063715018a61461053457806384b0196e1461043c5780638da5cb5b1461041457806390703f25146103ec57806396e6d433146102b2578063bf6f8e9314610257578063bfe2d225146101d2578063f2fde38b1461014c5763f4a3e5aa146100be575f80fd5b34610148576040366003190112610148576100d761079e565b6100df610a72565b5060018060a01b03165f52600360205260405f206024355f52602052606060405f2060026040519161011083610841565b80548352600181015460208401520154604082015261014660405180926040809180518452602081015160208501520151910152565bf35b5f80fd5b346101485760203660031901126101485761016561079e565b61016d610a90565b6001600160a01b031680156101bf57600280546001600160a01b0319811683179091556001600160a01b03167f8be0079c531659141344cd1fd0a4f28419497f9722a3daafe3b4186f6b6457e05f80a3005b631e4fbdf760e01b5f525f60045260245ffd5b34610148576060366003190112610148576101eb61079e565b602435906001600160a01b03821682036101485760018060a01b03165f52600460205260405f209060018060a01b03165f5260205260405f206044355f52602052606060405f2080549060ff600260018301549201541690604051928352602083015215156040820152f35b34610148576040366003190112610148576001600160a01b0361027861079e565b165f52600360205260405f206024355f52602052606060405f20805490600260018201549101549060405192835260208301526040820152f35b346101485760a0366003190112610148576102cb61079e565b60243590606036604319011261014857604051906102e882610841565b6044358252602082019060643582526040830190608435825260018060a01b031692833303610381577fb902c6d419533a57846e9a0b303befd4d6607f783d9ad95fc8876736f67c1925926002606093865f52600360205260405f20885f5260205260405f2092845184555160018401555191015561037e60405180926040809180518452602081015160208501520151910152565ba3005b60405162461bcd60e51b815260206004820152603c60248201527f41737375726156657269666965723a204f6e6c792061707020636f6e7472616360448201527f742063616e207365742069747320766572696679696e672064617461000000006064820152608490fd5b34610148575f366003190112610148576006546040516001600160a01b039091168152602090f35b34610148575f366003190112610148576002546040516001600160a01b039091168152602090f35b34610148575f366003190112610148576104d86104787f000000000000000000000000000000000000000000000000000000000000000061130e565b6104a17f0000000000000000000000000000000000000000000000000000000000000000611431565b60206104e6604051926104b4838561088d565b5f84525f368137604051958695600f60f81b875260e08588015260e087019061081d565b90858203604087015261081d565b4660608501523060808501525f60a085015283810360c08501528180845192838152019301915f5b82811061051d57505050500390f35b83518552869550938101939281019260010161050e565b34610148575f3660031901126101485761054c610a90565b600280546001600160a01b031981169091555f906001600160a01b03167f8be0079c531659141344cd1fd0a4f28419497f9722a3daafe3b4186f6b6457e08280a3005b346101485760206105f26105af6105a5366107b4565b9093919293610ad3565b916105be8286850151146108af565b6105ed6105e860018060a01b036005541660608601516040870151906105e2610bec565b92610d08565b6108fb565b610ed1565b6040519015158152f35b34610148575f366003190112610148576005546040516001600160a01b039091168152602090f35b346101485760203660031901126101485761063d61079e565b610645610a90565b6001600160a01b0381169081156106b157600580546001600160a01b031981169093179055604080516001600160a01b0393841681529290911660208301527f75e02100a5bfc2f3dd74344b1544d663928e66aafbb8a3df17a8cbaec24bb2989190819081015b0390a1005b60405162461bcd60e51b815260206004820152602760248201527f41737375726156657269666965723a2054454520616464726573732063616e6e60448201526606f7420626520360cc1b6064820152608490fd5b346101485760206105f2610719366107b4565b92919091610956565b34610148576020366003190112610148577fb52aa97b6cf85b9c2f88381715ef93c30eeb3da2b39e3d2345d184c01f84567a61075c61079e565b610764610a90565b600680546001600160a01b039283166001600160a01b031982168117909255604080519390911683526020830191909152819081016106ac565b600435906001600160a01b038216820361014857565b906060600319830112610148576004356001600160a01b038116810361014857916024359160443567ffffffffffffffff811161014857826023820112156101485780600401359267ffffffffffffffff84116101485760248483010111610148576024019190565b805180835260209291819084018484015e5f828201840152601f01601f1916010190565b6060810190811067ffffffffffffffff82111761085d57604052565b634e487b7160e01b5f52604160045260245ffd5b6080810190811067ffffffffffffffff82111761085d57604052565b90601f8019910116810190811067ffffffffffffffff82111761085d57604052565b156108b657565b60405162461bcd60e51b815260206004820152601c60248201527f41737375726156657269666965723a204b6579206d69736d61746368000000006044820152606490fd5b1561090257565b60405162461bcd60e51b815260206004820152602660248201527f41737375726156657269666965723a205369676e6174757265206e6f742066726044820152656f6d2054454560d01b6064820152608490fd5b926109619192610ad3565b90610971816020840151146108af565b60018060a01b0360055416916109986105e8606083019485516040850151906105e2610bec565b516001600160a01b039081165f9081526004602090815260408083209387168352928152828220848352905281902081516109d281610841565b60ff6002835493848452600181015460208501520154161515928391015281610a68575b81610a5d575b50610a5557610a529260018060a01b03165f52600360205260405f20905f5260205260405f2090600260405192610a3284610841565b805484526001810154602085015201546040830152519042914691610e35565b90565b505050600190565b90504210155f6109fc565b80151591506109f6565b60405190610a7f82610841565b5f6040838281528260208201520152565b6002546001600160a01b03163303610aa457565b63118cdaa760e01b5f523360045260245ffd5b67ffffffffffffffff811161085d57601f01601f191660200190565b90604051610ae081610871565b5f81525f6020820152606060408201526060610afa610a72565b9101528101906020818303126101485780359067ffffffffffffffff821161014857018082039160c083126101485760405192610b3684610871565b82356001600160a01b038116810361014857845260208301356020850152604083013567ffffffffffffffff81116101485783019180601f84011215610148578235610b8181610ab7565b91610b8f604051938461088d565b81835260208286010111610148576020815f92826060970183860137830101526040850152605f1901126101485760a060405191610bcc83610841565b606081013583526080810135602084015201356040820152606082015290565b307f00000000000000000000000000000000000000000000000000000000000000006001600160a01b03161480610cdf575b15610c47577f000000000000000000000000000000000000000000000000000000000000000090565b60405160208101907f8b73c3c69bb8fe3d512ecc4cf759cc79239f7b179b0ffacaa9a75d522b39400f82527f000000000000000000000000000000000000000000000000000000000000000060408201527f000000000000000000000000000000000000000000000000000000000000000060608201524660808201523060a082015260a08152610cd960c08261088d565b51902090565b507f00000000000000000000000000000000000000000000000000000000000000004614610c1e565b9282610e15918351602085015160408601516040519160208301937f8035b7327b16af4e9d13762e144e60ee421afcc2111abdbe3f400a2391b7d1cd855260408401526060830152608082015260808152610d6460a08261088d565b51902060405190602082019261190160f01b84526022830152604282015260428152610d9160628261088d565b51902092604051610dba6020820180936040809180518452602081015160208501520151910152565b60608152610dc960808261088d565b51902060405160208101917f19457468657265756d205369676e6564204d6573736167653a0a3332000000008352603c820152603c8152610e0b605c8261088d565b519020928561120c565b928315610e23575b50505090565b610e2d935061120c565b5f8080610e1d565b929190916020840151908115159182610ec7575b5050610ec0578060408401518015159283918294610eb5575b5050610ead5781610e9f575b81610e90575b50610e8a5751905111610e8657600190565b5f90565b50505f90565b9050604082015114155f610e74565b604083015115159150610e6e565b505050505f90565b14159050815f610e62565b5050505f90565b1090505f80610e49565b9160018060a01b03831690815f52600360205260405f20835f5260205260405f2092600260405194610f0286610841565b80548652600181015460208701520154604085015260018060a01b038251165f52600460205260405f20835f5260205260405f20815f5260205260405f209360408051610f4e81610841565b86549081815260ff600260018a015499602084019a8b520154161515928391015281611202575b816111f7575b506111ec57606083015190610f9242468484610e35565b6111e0578151815111610fab575b505050505050505f90565b51905190818103918183116111cc57600a8302928304600a14911417156111cc574201938442116111cc575192600184018094116111cc578190604051610ff181610841565b8681526002602082019187835260408101926001845260018060a01b038851165f52600460205260405f20855f5260205260405f20865f5260205260405f2091518255516001820155019051151560ff8019835416911617905560018060a01b038451167fd3501069de670fefdc3b8f3dac38b88faa8561394a4b70e47948a2d84ae88cb760408051898152886020820152a46006546001600160a01b0316948561109d575b80610fa0565b5f9360209284519260405192858401946bffffffffffffffffffffffff199060601b16855242603485015260548401526bffffffffffffffffffffffff199060601b1660748301526088820152608881526110f960a88261088d565b51902094604460018060a01b038451166040519586938492638b502f4f60e01b845260048401528960248401525af15f9281611188575b5061113d575b8080611097565b516040805194855260208501939093526001600160a01b03918216939116917ff8e50bc9c760dff258c37c854a28645665749307768a59aa4cdcb93f1ce7b39191a35f808080611136565b9092506020813d6020116111c4575b816111a46020938361088d565b8101031261014857516001600160a01b038116810361014857915f611130565b3d9150611197565b634e487b7160e01b5f52601160045260245ffd5b50505050505050600190565b505050505050600190565b90504210155f610f7b565b8015159150610f75565b9190823b61125b579061121e91611501565b5060048110156112475715918261123457505090565b6001600160a01b03918216911614919050565b634e487b7160e01b5f52602160045260245ffd5b915f9261129161129f85946040519283916020830195630b135d3f60e11b8752602484015260406044840152606483019061081d565b03601f19810183528261088d565b51915afa3d15611307573d6112b381610ab7565b906112c1604051928361088d565b81523d5f602083013e5b816112f9575b816112da575090565b90506020818051810103126101485760200151630b135d3f60e11b1490565b9050602081511015906112d1565b60606112cb565b60ff81146113545760ff811690601f8211611345576040519161133260408461088d565b6020808452838101919036833783525290565b632cd44ac360e21b5f5260045ffd5b506040515f5f548060011c9160018216918215611427575b6020841083146114135783855284929081156113f45750600114611397575b610a529250038261088d565b505f80805290917f290decd9548b62a8d60345a988386fc84ba6bc95484008f6362f93160ef3e5635b8183106113d8575050906020610a529282010161138b565b60209193508060019154838588010152019101909183926113c0565b60209250610a5294915060ff191682840152151560051b82010161138b565b634e487b7160e01b5f52602260045260245ffd5b92607f169261136c565b60ff81146114555760ff811690601f8211611345576040519161133260408461088d565b506040515f6001548060011c91600182169182156114f7575b6020841083146114135783855284929081156113f4575060011461149857610a529250038261088d565b5060015f90815290917fb10e2d527612073b26eecdfd717e6a320cf44b4afac2b0732d9fcbe2b7fa0cf65b8183106114db575050906020610a529282010161138b565b60209193508060019154838588010152019101909183926114c3565b92607f169261146e565b81519190604183036115315761152a9250602082015190606060408401519301515f1a9061153b565b9192909190565b50505f9160029190565b91907f7fffffffffffffffffffffffffffffff5d576e7357a4501ddfe92f46681b20a084116115bd579160209360809260ff5f9560405194855216868401526040830152606082015282805260015afa156115b2575f516001600160a01b038116156115a857905f905f90565b505f906001905f90565b6040513d5f823e3d90fd5b5050505f916003919056fea2646970667358221220a10251d35aedbd40e34e8067c8848ce5c64dff516015282daaba98478bdbf97964736f6c634300081c003360808060405234601557610a20908161001a8239f35b5f80fdfe6080806040526004361015610012575f80fd5b5f3560e01c90816306433b1b1461054d575080632dd310001461051f578063367bdc07146104875780635e7858cc146104595780638b502f4f1461035c5780639697d188146102c8578063a1fbf4b614610335578063d0733b3b14610307578063d6d3ff47146102c8578063da9fc1ae146101695763f6cec5ca14610095575f80fd5b34610165576020366003190112610165576100dd60206100bb6100b6610579565b610706565b60405180938192637d7d15a160e11b8352604060048401526044830190610600565b5f5160206109cb5f395f51905f5260248301520381731edad1eb62b6c1bf8dd3071f25412cee2ad559a65afa801561015a576020915f9161012d575b506040516001600160a01b03919091168152f35b61014d9150823d8411610153575b61014581836105bf565b8101906105e1565b5f610119565b503d61013b565b6040513d5f823e3d90fd5b5f80fd5b3461016557602036600319011261016557610182610579565b6001600160a01b03811680156102835760206101a06101c293610706565b60405180948192633a9b44eb60e21b8352604060048401526044830190610600565b5f5160206109cb5f395f51905f52602483015203815f731edad1eb62b6c1bf8dd3071f25412cee2ad559a65af1801561015a576020925f91610266575b5060018060a01b0381168281935f525f855260405f20826001600160601b0360a01b8254161790557ff0acda094aefca0f382f1150baa03e8c050833d76fb46857830a24f2c5abcdcb856040515f5160206109cb5f395f51905f528152a350604051908152f35b61027d9150833d85116101535761014581836105bf565b836101ff565b60405162461bcd60e51b815260206004820152601c60248201527f4f776e65722063616e6e6f74206265207a65726f2061646472657373000000006044820152606490fd5b34610165576020366003190112610165576001600160a01b036102e9610579565b165f525f602052602060018060a01b0360405f205416604051908152f35b34610165575f36600319011261016557602060405173e98dfff8e98c672c6c83485b76df953aa9e10e6c8152f35b34610165575f3660031901126101655760206040515f5160206109cb5f395f51905f528152f35b3461016557604036600319011261016557610375610579565b6001600160a01b038116906024358215610283576020816103986103b394610706565b604051633a9b44eb60e21b8152948592839260048401610624565b03815f731edad1eb62b6c1bf8dd3071f25412cee2ad559a65af190811561015a5760209384935f9361043a575b507ff0acda094aefca0f382f1150baa03e8c050833d76fb46857830a24f2c5abcdcb60018060a01b038416948593835f525f825260405f20856001600160601b0360a01b825416179055604051908152a350604051908152f35b610452919350843d86116101535761014581836105bf565b91856103e0565b34610165575f36600319011261016557602060405173819fcb032237d5fac99af23df6b92e5caa1e08538152f35b34610165576040366003190112610165576104c660206104a86100b6610579565b60405180938192637d7d15a160e11b83526024359060048401610624565b0381731edad1eb62b6c1bf8dd3071f25412cee2ad559a65afa801561015a576020915f9161050257506040516001600160a01b03919091168152f35b6105199150823d84116101535761014581836105bf565b82610119565b34610165575f366003190112610165576020604051731edad1eb62b6c1bf8dd3071f25412cee2ad559a68152f35b34610165575f366003190112610165578073dfe9f41d6eca9cdb5c5bfbbcf93017241628687560209252f35b600435906001600160a01b038216820361016557565b6040810190811067ffffffffffffffff8211176105ab57604052565b634e487b7160e01b5f52604160045260245ffd5b90601f8019910116810190811067ffffffffffffffff8211176105ab57604052565b9081602091031261016557516001600160a01b03811681036101655790565b805180835260209291819084018484015e5f828201840152601f01601f1916010190565b92919061063b602091604086526040860190610600565b930152565b6040519061064f6020836105bf565b5f80835282815b82811061066257505050565b6020906040516106718161058f565b5f815260608382015282828501015201610656565b90604060206106ab9360018060a01b0381511684520151918160208201520190610600565b90565b9080602083519182815201916020808360051b8301019401925f915b8383106106d957505050505090565b90919293946020806106f7600193601f198682030187528951610686565b970193019301919392906106ca565b9061070f610640565b91610718610640565b906040516107258161058f565b5f81526040516020810181811067ffffffffffffffff8211176105ab576040525f81526020820152610755610640565b94604091825161076584826105bf565b6001815260208101601f1985013682378151156109b6576001600160a01b03861690528351976060890167ffffffffffffffff81118a8210176105ab57855273dfe9f41d6eca9cdb5c5bfbbcf93017241628687589526020890191825284890192600184528551966001600160601b03199060601b166020880152601487526107ef6034886105bf565b6020978651956107ff8a886105bf565b5f87528751633b8c157360e11b8b82015260e0602482015298610827906101048b0190610600565b8981036023190160448b015261083c916106ae565b8881036023190160648a0152610851916106ae565b87810360231901608489015261086691610686565b8681036023190160a488015261087b916106ae565b6023198682030160c487015283518082528782019188808360051b8301019601925f915b8a8985851061096b575050506023198988030160e48a0152505098516001600160a01b03168452505160608684018190528151908401819052608084019850908601905f5b81811061094e575050509161092a8473819fcb032237d5fac99af23df6b92e5caa1e085397986106ab9796948460ff61094098511691015203601f1981018452836105bf565b8051958694850152808401526060830190610600565b03601f1981018352826105bf565b82516001600160a01b03168a5298870198918701916001016108e4565b6109a7816060899c818695600198999a9b9c601f198b8503018c525180518452898060a01b038882015116888501520151938201520190610600565b9901930193019193929061089f565b634e487b7160e01b5f52603260045260245ffdfe63f3f561a3bade8908db4eb8e029f718103861c84b38621b9791e0ab5cb1b0eea2646970667358221220d7ef7dd381b2c32114ee5b3bcccc30865a4d0b14634bb7ddef7eaef6af7df38764736f6c634300081c0033",
  "linkReferences": {},
  "deployedLinkReferences": {},
  "immutableReferences": {
    "5543": [
      {
        "length": 32,
        "start": 3109
      }
    ],
    "5545": [
      {
        "length": 32,
        "start": 3298
      }
    ],
    "5547": [
      {
        "length": 32,
        "start": 3055
      }
    ],
    "5549": [
      {
        "length": 32,
        "start": 3188
      }
    ],
    "5551": [
      {
        "length": 32,
        "start": 3226
      }
    ],
    "5554": [
      {
        "length": 32,
        "start": 1108
      }
    ],
    "5557": [
      {
        "length": 32,
        "start": 1149
      }
    ]
  },
  "inputSourceName": "project/contracts/assura/AssuraVerifier.sol",
  "buildInfoId": "solc-0_8_28-6a64e4b69ee885e5af05cb1b53738333fb34ccf9"
}